:020000040800F2
:100000000002002059040008F5030008B1030008AD
:10001000050400081504000825040008000000007D
:100020000000000000000000000000009503000830
:1000300035040008000000007903000845040008AA
:1000400025010008250100082501000825010008F8
:1000500025010008250100086D0D00086D0D000840
:100060006D0D00086D0D00086D0D000825010008DC
:1000700025010008250100082501000825010008C8
:1000800025010008250100082501000825010008B8
:100090002501000825010008250100086D0D000854
:1000A000250100080318000825010008FD170008B5
:1000B0002501000825010008250100082501000888
:1000C0002501000825010008250100082501000878
:1000D00025010008AD080008B3080008B9080008A9
:1000E0006D0D0008E1250008250100082501000824
:1000F0002501000800000000250100082501000876
:100100002501000825010008250100082501000837
:100110002501000825010008250100082501000827
:100120002501000800F08EB900F0A0BA7047000069
:1001300070B50C46064600F089FA094B094A1D685D
:100140002C44944202D8084A944207D20C234FF020
:10015000FF35336000F082FA284670BD1C60F9E775
:100160000002002000400120C42300201946104650
:1001700000F088BA1946104600F08CBA13230360C9
:100180004FF0FF307047132303604FF0FF3070478C
:10019000132303604FF0FF307047002302290360F0
:1001A0008CBF002001207047134910B50C68002057
:1001B00094FAA4F18442B1FA81F108BF4FF0FF3103
:1001C0000E4C0F4B54F8211018600E4B09681A683A
:1001D000A1F1080494420ED022B110790A2804BF7C
:1001E0000B2010710A22012001F8042C31F9021CA5
:1001F000054A1C60118010BD94020020A802002056
:10020000A00200209C02002098020020092930B59D
:1002100003791AD9092B14D81A4B427900F1080432
:1002200053F822507DB12D68856053F822502C6020
:1002300043F822400123144A4479A340146823431D
:100240001360017130BD8460F2E7092BF9D90D4BC1
:10025000457953F825203AB11468A2420BBF002219
:10026000246843F825201460427953F82230002B8B
:10027000E7D10123044C03FA02F2236823EA0203C4
:100280002360DEE7A80200209402002008B5094B95
:100290001B681A79092A02D95B79834205D900F0D3
:1002A000E0F918B10122044B1A6008BDBDE808400E
:1002B00000F05AB89C020020A002002008B500F00F
:1002C000C5F90021084B094A1B88094C1BB242F8AA
:1002D0002310084A20681368013B1360FFF796FF5C
:1002E000216000F03DF800BF98020020E8020020E5
:1002F0009C020020A402002013444FF0773223F028
:10030000030310B543F8042C5A0758BF4FF0883246
:10031000044658BF43F8082CA3F1040058BFA3F1CA
:1003200008004FF0807340E902430C4B002240F874
:100330000C3C0323022440E905320123024640E934
:1003400007340B2342F8201D42F8043D013B032BE8
:10035000FAD16FF0020340F8443D10BDBD02000821
:1003600000F078F901DFFEE7024A536843F080535A
:100370005360704700ED00E0EFF3098020E9F00FD3
:1003800040F804ED02490968086000F003F8000035
:100390009C020020FFF708FF04480068016801C9BB
:1003A000B1E8F00F81F30988004700009C020020AB
:1003B0000D4B0E4A0E496846904203D8984201D927
:1003C000002102E009468D460121042072460242C6
:1003D00002D1EFF3088001E0EFF309802DE9F00F7F
:1003E0006B4600F06FF800BF58010020004001206C
:1003F00000020020042008B5014900F0E9FD00BF1B
:10040000445F0008062008B5014900F0E1FD00BF87
:10041000505F0008072008B5014900F0D9FD00BF72
:10042000635F0008082008B5014900F0D1FD00BF56
:10043000755F0008092008B5014900F0C9FD00BF3B
:10044000895F00080A2008B5014900F0C1FD00BF1E
:100450009B5F00087047704708B5FFF7FBFF6A46CF
:10046000114B1249934213D3114B124A12498B423A
:1004700011D30021114B124A934211D3FFF7EBFF26
:1004800000F098FD03F094FFBDE8084000F0D2BDF5
:1004900043F8041BE6E752F8040B43F8040BE6E7C5
:1004A00043F8041BE8E700BF00000020FEE7FEE77A
:1004B00000020020B8660008940200209402002088
:1004C000C42300202DE9F04F8FB00A93494B924688
:1004D0009A6B044603925A6B9F6A0492DA6A8946C1
:1004E00005921A6BDB6B06920793434B1A68434BDA
:1004F0009A4202D0424804F013F8B9F1000F50D0EC
:100500000025404804F00CF82E463F4804F008F857
:1005100039463E4803F07EFF05993D4803F07AFFD7
:1005200006993C4803F076FF07993B4803F072FFB9
:100530003A0403D50399394803F06CFF3B0603D511
:100540000499374803F066FF364803F0E9FF514647
:10055000354803F05FFFB9F1000F1DD1334803F0B8
:10056000DFFF3146324803F055FF6946314BC91A67
:1005700003D53148494203F04DFF0A9B1E462046F1
:100580008268C36801698C4641698E46AD46314632
:1005900091E8F00F4168006801BE0520274900F08E
:1005A00017FD2069D4E906680890606918F4007F97
:1005B00009902348D4E900B2D4E9023108BF04F11C
:1005C0002005CDE90C3118BF04F124050B9203F08E
:1005D000A7FFDDE90B230D991A480091594603F056
:1005E00019FFDDE908123346CDF80080164803F004
:1005F00011FF8AE700ED00E000000020FEE7FEE7C3
:10060000A95F0008BF5F0008846000088D600008D3
:100610009D600008AD600008BD600008CD60000866
:10062000DD600008ED600008F26000080461000869
:1006300035610008580100205D6100088A610008EA
:10064000EE5F00080960000846600008EFF31080C4
:1006500072B6704762B6EFF31080704780F310886F
:100660007047EFF30580C0B2704700004FF4E131EE
:100670000020024B024A00F0B9B800BF040200207B
:100680004D1200080A460146014800F0EABD00BFCD
:100690000402002010B50C460A460146002000F076
:1006A0006DF8204610BD0000182343430D4A70B575
:1006B000D45823889A069DB209D50C2358430A4A78
:1006C000A18813181E7A12583140586890472B079A
:1006D00048BFA388054B1B681BB1BDE87040FFF7FE
:1006E00043BE70BDA0610008AC030020A002002042
:1006F0002DE9F041182444431F4E0D4606EB040833
:1007000098F81470384600F025FFB0FBF5F1072982
:1007100008D83846D8F8041000F044FF6FF0010004
:10072000BDE8F08133590F299A8922F400524FEA2B
:1007300002424FEA12429A81CAB212D89989083A03
:100740006FEA41416FEA514142F0100289B299814A
:10075000D2B21A819A89002092B242F400529A8150
:10076000DEE7988902F00F02C0F30E0098814FF681
:10077000F07008400243ECE7A0610008022810B5C1
:1007800003D903200C4900F023FC182358430B4BDA
:100790001B589889000705D50A44914203D11A884D
:1007A0005206FCD510BD11F8010B1C882406FCD59F
:1007B00080B29880F1E700BF5E620008A061000887
:1007C000022808B503D90320064900F001FC1822CD
:1007D000054B02FB0030BDE808404168007D00F099
:1007E000C9BE00BF5E620008A061000802282DE9B2
:1007F000F84304468846164603D90320274900F0EB
:10080000E7FB0C22182562432548DFF89C908118ED
:100810004B60FF2305FB0495EF6886500B7238464A
:10082000697C00F07FF9384600F028FA3846E97C08
:1008300000F0B5F94F464EB1D5F80890297C4846EE
:1008400000F070F94846A97C00F0A9F92046FFF7AE
:10085000B7FF18236343FD5807EB03090023414604
:10086000AB8120462B82AB82FFF742FF9EB199F904
:10087000153099F81520002B07DB02F01F0101222B
:100880008A4008495B0941F8232042F22C030020EA
:10089000AB81BDE8F88342F20803F8E75E62000826
:1008A000AC03002000E100E0A06100080020FFF799
:1008B000FBBE0120FFF7F8BE0220FFF7F5BE0000E7
:1008C0007D4B01282DE9F74F187006D0022820D063
:1008D0004FF0FF3003B0BDE8F08F784B1A6842F05C
:1008E0000E021A601A6842F400721A605A6842F4E2
:1008F000E0625A60724A136943F004031361FFF720
:10090000A5FEBFF34F8F30BFFFF7A8FE00F022FD1A
:10091000DEE76A4B6B4F1A68DFF8E89122F00202BB
:100920001A601A68DFF8E08142F004021A601A685F
:10093000654E42F001021A601A68B24642F4007233
:100940001A605F4AC3461369604C43F004031361A5
:10095000FFF77CFE4B4605463A462046CDE900238C
:1009600000F028FCDDE900235949002873D1594CD7
:100970000023A246DFF894B1DBF80000818911F46E
:1009800000517AD08189009321F400510904090CA7
:1009900081810421DBF80C0000F0C4F80122009BE7
:1009A00022700133032B0BF1180B04F10104E3D186
:1009B0004FF48051012000F00FFE01280FD1464B6B
:1009C0001B889A075BD40821444800F0ABF8082143
:1009D000434800F0A7F80321424800F0A3F84FF481
:1009E0008041002000F0F8FD01280FD13E4B1B880C
:1009F0009B0746D408213D4800F094F808213C4864
:100A000000F090F803213B4800F08CF8BFF34F8FC3
:100A100030BF00F09FFC2D4CDFF8B4B0204600F052
:100A2000C9FB80BB9AF800302BB1334A93899BB243
:100A300043F4005393819AF801302BB12F4A9389E4
:100A40009BB243F4005393819AF8023063BB28466B
:100A5000FFF704FE3CE7206842F8040BE06843F827
:100A6000040BA0882BF8020B208D04F580648C42C7
:100A70002AF8020B7FF471AF79E7217091E7042126
:100A8000A2E70421B7E759F8043BE36038F8023BDA
:100A9000A38057F8043B236036F8023B238504F516
:100AA00080645C45BAD1BDE7154A93899BB243F493
:100AB00000539381CBE700BF330400200070004057
:100AC00000ED00E0E0030020D00300200000024021
:100AD00000200240300400200030014005000240A8
:100AE0000700024006000240003800400D040240AA
:100AF0000F0402400E040240003801400044004050
:100B0000004800401004002000040020E8610008B4
:100B100008B5FFF79BFD0022014B1A7008BD00BF0E
:100B200033040020F8B5431C0C4637D0012620F0D2
:100B30000F0500F00F07C0F3832006FA00F1022032
:100B400000F018FDFFF782FD03232A6807FA06FC70
:100B500003FA0CF304F0030122EA030201FA0CF198
:100B600011432960E968C4F3810221EA030102FA12
:100B70000CF20A43EA60AA88BE4092B2C4F30014A1
:100B800022EA0602BC401443A4B2AC80AA68B6B202
:100B90001343AB602E85FFF761FD0020F8BDF8B56B
:100BA000431C04460D4624D020F00F0600F00F072A
:100BB000FFF74CFD0323326879008B4022EA0302E1
:100BC00002238B401343072F33608CBF0423002381
:100BD0001E440F2304F00704316AA400A34021EA55
:100BE000030105FA04F40C433462BDE8F840FFF752
:100BF00035BDF8BD431C10B518D0C0F381020C4BB5
:100C0000023253F822300F2200F00301890000F075
:100C10000F048A40C0F383201A408840824205D1E5
:100C20000123044AA34011680B43136010BD00BFA9
:100C30000000014000040140431C10B519D00D4BC9
:100C4000C0F38101023153F821100F2300F0030299
:100C5000920000F00F049340C0F383200B409040BB
:100C6000834206D101220449A2400B6823EA020311
:100C70000B6010BD0000014000040140431C07D080
:100C8000012320F00F0200F00F0003FA00F0906142
:100C90007047431C08D0012320F00F0200F00F0022
:100CA000103003FA00F09061704700002DE9F04128
:100CB0008846012105461646294A00F00F0442F8ED
:100CC0003430069B02EBC4025360C0F3832708460E
:100CD00000F050FC41462846FFF724FF042C214B2E
:100CE00034DC0122A11D8A401A6001221E4BA24061
:100CF000996805F0030521EA02019960986806F0F9
:100D00000101A14001430F209960D968760821EACA
:100D10000201D960D968A64004F00C040E4304F126
:100D20008044DE6004F58034A168AD00A84021EA6B
:100D30000001A160A16807FA05F50D43A5605A619D
:100D4000196800200A431A60BDE8F081092C02DC12
:100D50004FF40002C8E74FF480725A60C5E700BF45
:100D60003404002000E100E0000401402DE9F041DE
:100D700000254FF001080D4C0D4E676922681740A1
:100D800008FA05F33B4203D06361D6E90030984787
:100D90000135102D06F10806F2D1064B1B681BB178
:100DA000BDE8F041FFF7E0BABDE8F0810004014082
:100DB00034040020A0020020002000F0C7BC000086
:100DC00038B5044C2568FFF7F7FF2368AB42F9D12B
:100DD000184338BDBC040020034B196819B982B20E
:100DE000084600F08FBC7047B40400202DE9F0479E
:100DF000294E3268B24602F58032326032681AB942
:100E0000264B1A6801321A600020254B254C1A68BF
:100E10001860236884461946234FDFF880E0DFF826
:100E20008C803A6021B1DEF800508E68AE4217D94E
:100E300000B12160BCF1000F10D00021CCF80010EF
:100E40003AB3C3B151685868814294BF11461946FC
:100E5000084612681B6882B903603960BDE8F087F4
:100E60004D68DAF8009005EA08054D45E0D18C465A
:100E700001200968D6E71146EAE70BB90260ECE702
:100E800054685D68AC4294BF14461C46046020461A
:100E9000DFE73B60E2E700BFBC040020B8040020AD
:100EA000C4040020C0040020C80400200000FFFF8C
:100EB0002DE9F041002965D10123334F334D3B60CB
:100EC0002B68CBB9FFF792FF4FF6FF74FFF774FF63
:100ED000A042FBD000244FF000082B6883B9FFF735
:100EE0006BFF1430844228D9FFF780FFFFF764FFBF
:100EF0008442FBD30024F0E7FFF75EFF0446EAE7F5
:100F00005E68FFF759FF844205D8B3B2834202D925
:100F10001B1A132BE3D82B685E68FFF74DFF844242
:100F200002D8B6B28642F6D82B681A68C3E901889F
:100F30002A60D3E903209047CFE72B686BB15E6846
:100F4000FFF73EFF063E14308642C6D300233046EC
:100F50003B60BDE8F041FFF73FBFFFF72DFF844244
:100F6000064602D9FFF742FFC4E700F114039BB223
:100F7000984204D9FFF720FF8642FBD9F2E74FF6EB
:100F8000FF76E3E7BDE8F081B4040020C804002048
:100F900008B50023054A1846054900F0EBFBBDE8FB
:100FA00008404FF0FF30FFF717BF00BFB10E000839
:100FB00040420F0008B500F087F9BDE80840012164
:100FC0000148FFF7AFBD00BF0004024070470000BA
:100FD00008B50C4B0C461A6872B9012203281A6036
:100FE00003D17146084803F015FA2146074803F07B
:100FF00011FA074803F00EFAFFF728FBFFF7E6FFA8
:10100000FFF786FDCC04002030620008346200083F
:101010005062000808B500F045FE034803F0FAF9F5
:1010200000F0EAFD002008BD7062000808B500F07D
:101030002BF9FCE71FB50024FFF708FB0D4B0F222F
:101040001B684FF4807102930B4B0C480093019482
:101050000C2300F033F80A4B07221B684FF4406161
:10106000CDE90143074B084800930C2300F026F814
:10107000FFF776F9180200202D100008D004002098
:101080001C02002015100008D005002038B50B798F
:10109000092B03D903200849FFF79AFF4C7901F186
:1010A00008020346006818B110F8035CA542F8D99D
:1010B00088601A6038BD00BF5E6200080F2A2DE903
:1010C000F74F05468A469046994637D810F00303F5
:1010D0000FBF0B46C3F10402043B5B18A3F13003BE
:1010E00018BFAD1823F0030319F0080F05EB030434
:1010F0001AD12D6003E012600432A242FBD30193A7
:10110000FFF7A4FA012207462849019B51F8226003
:101110000FFA82FBAEB10132212AF7D13846FFF730
:101120009DFA6FF08A0B3CE02A46E6E70121204653
:10113000FFF76CF83846FFF791FA32E06FF0150BC5
:101140002FE041F822402A46DDE90C01A4F806B060
:10115000FFF7D2F80E9B164AA3624FF0FF33C4E9A3
:101160000736136819F0010F03F101032060C4E989
:101170000266C4E904666562C4F82CA084F80580A0
:101180002671A6611360D1D10B212046FFF73EF8EE
:1011900019F0040FCED13846FFF760FA4046FFF74A
:1011A00075F8584603B0BDE8F08F00BFE802002094
:1011B000A40200200C4B9A6A42F400429A62EFF3B8
:1011C000138171B65A6942F480725A610278986A42
:1011D0005A6922F480725A6181F3138880F40040C6
:1011E000C0F3C030704700BF00ED00E0F8B5054621
:1011F0000F46164604463C442046FFF7DBFF631BC0
:1012000008B19E42F7D81846F8BD00000C4B0D4AB5
:1012100010B59A60102200210B4C83F82220DA7757
:1012200060180131392980F80023F9D11A6942F098
:1012300010021A615A6942F400725A6110BD00BF6F
:1012400000ED00E00000000800E100E038B50546D0
:1012500000F0F6FA044605F1100000F05BFD2046B0
:1012600038BDF8B504460D46164600F11007324663
:101270002946204600F0D1FA00B1F8BD01213846D8
:1012800000F018FDF3E7000073B50E4C23680193DE
:1012900004230DEB03021E46013B995C11B9002BA0
:1012A000F9D11E46FFF7D2F92368019A05469A4202
:1012B00002D170B2FFF704FB284602B0BDE87040CF
:1012C000FFF7CCB9200200202DE9F047FFF79EFF81
:1012D0004FF08051002000F04DF900F03BF81A4B20
:1012E000FF210220DE69002500F044F96FF0A847D5
:1012F0004FF0FF386FF4A079F6B2AC0204F18044ED
:1013000004F5003420465FFA85FAFFF753FF50B129
:101310002DB1BAF1010F14D0C4F8008000E02760AD
:101320000135082DE9D1084B0220D96921F0FF01D0
:10133000314300F01FF900F096FABDE8F04700F0E5
:1013400063B9C4F80090EBE7003802400138FDD1E2
:1013500070470000774B37B51A68774D42F48072BA
:101360001A609A6822F47F5222F030029A609A68DA
:1013700022F0EE429A609A6822F003029A6019689D
:101380006E4A0A4000211A60D9602A68022A00F0D9
:10139000AF80B2F5003F1A6842F480321A6040F024
:1013A000AC8064490A682B681A42FBD0644B1A6807
:1013B00042F004021A601A6842F001021A601A68C8
:1013C00042F002021A609A691207FCD54FF0805170
:1013D000002000F0CFF85B4B1A680092009A22F4CC
:1013E000C0520092009A42F400620092009A1A6081
:1013F0005A68D406FCD44F4C062063680093009BC7
:1014000023F460430093009B43F440430093009B0C
:101410006360FFF79BFF236843F001032360A36829
:1014200023F47D03A360A36843F40003A36023684F
:1014300043F08073236023689801FCD51A20FFF7DE
:1014400085FF236823F0807323603A4B1A6891016B
:10145000FCD49A6822F47D029A602A68B2F5003FB3
:101460009A680CBF42F4050242F408029A60314BBC
:101470001A6842F080721A601A689201FCD540F234
:1014800001129B6830490093009B23F003030093F3
:101490002B68B3F5003F08BF1146009B43F00303E0
:1014A0000093009A234B9A609A6802F00C020C2A6F
:1014B000FAD11A6822EA01021A602449244A116208
:1014C0009A680092009A22F0F0020092009A00922C
:1014D000009A22F4E0620092009A0092009A22F4AC
:1014E00060520092009A0092009A9A6003B030BD58
:1014F0001A6842F001021A6053E74FF4003242F2D8
:1015000010702A60019119682A6811427FF449AF6E
:10151000019A01320192019A8242F4DD1A6842F086
:1015200001021A601A6822F480321A6002232B60CA
:1015300037E700BF00380240D0110020FEFFFAEE6E
:10154000003C024000700040000101000048E8013A
:10155000D4110020014B186A704700BFD41100203D
:10156000024A034B1B5C106A58437047D411002099
:10157000AA620008012809D002280CD018B9084A2C
:10158000536A19435162BFF34F8F7047044A136A7D
:1015900019431162F7E7024AD3691943D161F2E7AF
:1015A00000380240012808D002280CD080B9094A2E
:1015B000536A23EA010151627047064A136A23EA1B
:1015C000010111627047034AD36923EA0101D16125
:1015D000704700BF00380240012809D002280AD015
:1015E00060B9084B5B6A0B4214BF012000207047B2
:1015F000044B1B6AF7E7034BDB69F4E74FF0FF305E
:10160000704700BF0038024038B54FF4A0324FF4A5
:1016100080614FF00050FFF7E9FD0425144C4FF4B2
:1016200000224FF4806120604FF000602571FFF7C9
:10163000DDFD4FF48073A060000A4FF48042E0604B
:101640004FF400610B4823612575FFF7CFFD0A4B6E
:1016500025771B68A061C3F30B03A3F21643212B6C
:101660008EBF0023054AD35C84F8243038BD00BF08
:10167000D411002000000808002004E0AC6200083B
:101680002DE9F843074600241B4A0301D658DFF82A
:101690007090338AB58909EBC008ADB21D400223B2
:1016A00003FA04F22A420AD0B38921469BB223EA04
:1016B0000203B381D8F8040059F837309847012362
:1016C000A3402B420BD0338A214623F001031B0495
:1016D0001B0C3382D8F8040059F83730984701348E
:1016E000042CDCD1054B1B681BB1BDE8F843FEF7A9
:1016F0003BBEBDE8F88300BFD0620008A002002016
:10170000FC110020032910B51ADC0F4B040103EB78
:1017100000101C59436800201A4001F10C0304EB2F
:1017200083035A60238A9AB2022303FA01F109B2B1
:1017300022EA01032382A389194389B2A18110BD42
:101740004FF0FF30FBE700BFD0620008024B000102
:101750001B58586A704700BFD0620008044B000154
:101760001A5813889BB243F001031380704700BFDF
:10177000D062000801282DE9F84304460F4633D80B
:101780001B4D1C4E45F8302005EBC0056B6006EB89
:10179000001595F80C80A9684FEA00194046FFF73C
:1017A000E9FE002356F8096040463380B3806B6839
:1017B000F362FFF7D5FEB0FBF7F0012295F90D308B
:1017C000013880B2002B3085697BB28206DB01F0E4
:1017D0001F018A4008495B0941F823202046FFF792
:1017E000BDFF0020BDE8F8834FF0FF30FAE700BFEF
:1017F000FC110020D062000800E100E00020FFF7AB
:101800003FBF0120FFF73CBF82680168531C836023
:101810004368013B1340C85C7047F8B504460F4667
:10182000164615461DB1A268E3689A4201D1701BA5
:10183000F8BD2046FFF7E8FF013D07F8010BF1E78F
:10184000C26830B584684368121B9A4208D0C268E7
:101850000468551CC5600020013B1340E15430BDB5
:101860004FF0FF30FBE7704713B51021084800F038
:10187000C9FB43F25644684600F0C0FBBDF8023095
:10188000A342F8D101980368DB689847F3E700BFEB
:101890000C12002070B505461446C2B059B943F287
:1018A00056430390B2F90C1802A8ADF80A3000F0C4
:1018B00083FB42B070BD042914D00A2921D002292B
:1018C000F7D1536800221B6811465E6801ABB04730
:1018D000021EEEDB636828461B6802A95C6801AB48
:1018E000A047E6E7094802F095FD02238DF808308D
:1018F000636819211B6828465C6902AA0123A04776
:10190000D7E753681B689B689847D2E7F0620008E6
:101910007FB547F20F03ADF800300B6840680F2B1E
:1019200007BF8DF8023092F900305BB28DF80230BB
:101930008DF803308DF804308DF805308DF80630C1
:101940008DF807308DF808308DF8093000230393A7
:101950000A2305930368CDF810D01B6803A99847A4
:1019600007B05DF804FB0000F8B50446254D264E8F
:1019700060682A46036810215F690223B8470A2776
:1019800000214FF4A05000F063FB20461E4A1D4981
:10199000FFF7BEFF013FF3D12B6801330F2B2B6004
:1019A000E6D1336832460C2B0CBF0723013333607A
:1019B0000F23294620462B60FFF7AAFF00214FF492
:1019C000A05000F045FB324629462046FFF7A0FF15
:1019D00000214FF4A05000F03BFB32462946204640
:1019E000FFF796FF00214FF4A05000F031FB4FF0BD
:1019F000FF3360682B60036832465F693B21012337
:101A0000B847B5E72402002028020020F0B5704B4B
:101A10008BB00B606F4B4160CDE901036E4B044608
:101A20000093062208234FF400610C30FFF746FBB9
:101A30000028A4F80C0805DC684802F071FD0020BD
:101A40000BB0F0BD664B0522CDE90143654B4FF469
:101A50000061009304F60E000823FFF72FFB41F20C
:101A60000E03E052B4F90C38002BE5DD6068036822
:101A70009B689847002802DA5B4802F051FD002677
:101A800001256368594A5A48C3E901248DF810605A
:101A900002F046FD60688DF8115003680DF11102E7
:101AA0005F6919212B46B84706236068ADF81630E8
:101AB00003680DF116025F6927210223B847072347
:101AC00060688DF8123003680DF112025F693B21E6
:101AD0002B46B84760688DF8136003680DF1130258
:101AE0005F693A212B46B84760688DF81450036847
:101AF00005AA5F693C212B46B84760688DF81560E0
:101B000003680DF115025F6936212B46B8476068FE
:101B100004AA036835215F692B46B847606804AAA8
:101B2000036837215F692B46B847606804AA0368D9
:101B300033215F692B46B847606804AA03683D21DA
:101B40005F692B46B847606804AA03683E215F6955
:101B50002B46B8474FF6FF736068ADF8183003683E
:101B600006AA5F6910210223B84708236068ADF810
:101B70001A3003680DF11A025F6932210223B84757
:101B800047F2305360680793036807AA5F693921F9
:101B90000423B84760680896036808AA5E6938217C
:101BA0000423B0476068134B09AA099303683421E2
:101BB0005E690423B047022360688DF81130036822
:101BC00019215C690DF111022B46A04737E700BFD0
:101BD000146400080C6300086918000822630008F8
:101BE000506300086919000864630008951800082C
:101BF0008863000840E3CB33214C224D80B50FCDE4
:101C00000FC40FCD0FC495E80F0084E80F00A4F1B6
:101C100048011D48FFF7FAFEDFF87C801B4F1C4C83
:101C20001C4D38461C4902F083FC2946384602F018
:101C30007FFC204602F074FC134ED8F800101748C1
:101C400002F0E8FB204602F06BFC7068124A036861
:101C50001021D3F814900223C847204602F060FCFC
:101C600029680F4802F0D6FB204602F059FC706844
:101C70002A4603683B215E690123B047D0E700BFD5
:101C8000B4120020C063000818130020A8630008E5
:101C90005D6200082802002024020020AB630008D7
:101CA000B663000808B5FFF773F9BDE8084000F017
:101CB00027BB000070B504460D46FEF7C7FC23683D
:101CC00006463BB94FF0FF332360FEF7C7FC012502
:101CD000284670BDC5B10E4B02211D682846FEF78F
:101CE00095FA236801330AD105F108032360002324
:101CF000AB603046FEF7B2FCFEF736FBE7E729465D
:101D00002046FFF7C3F9F4E7FEF7A8FCE0E700BFC1
:101D10009C02002070B50446FEF798FC2568064634
:101D20001DB9BDE87040FEF799BC6B1C02D10023C1
:101D30002360F6E7284650F808390B212360FEF7A8
:101D400065FA236813B94FF0FF33236015F8034C8D
:101D50003046FEF783FC2046BDE87040FEF796BA99
:101D6000F8B505460E46FEF771FC3B4B3B4A1B8817
:101D700007461BB252F823301A6A002A66D0D3E90C
:101D80000542A24262D0621C5A61DA69144046B927
:101D90001A6932B9621C04D13846FEF75FFC20464E
:101DA000F8BD002C56DB1A6A02EBC40292E803006D
:101DB00085E803001E69002E42D03268002C1A61AB
:101DC0000DDBD3E906255969186A511A8D42B1BF56
:101DD0004FF0FF32511C2A40996100EBC205736835
:101DE00093E8030085E8030016F8043C052B25D092
:101DF00000230B217360A6F10800FEF707FA16F81E
:101E0000034C3846FEF72AFC0E2C12D82046FEF76B
:101E10003DFA0EE018460321FEF7F8F93846FEF7C2
:101E20001DFCFEF7A1FA0E4B1B681B79032BD8B2E1
:101E300001D00124B3E70B49FFF7CAF80F24E0E70C
:101E4000002CE7DB3846FEF709FCF2E74FF0FF34E1
:101E5000002E9DD0DD60ADE798020020E802002052
:101E60009C0200205E62000810B5D0E90632446989
:101E70001C1BA24201DA002010BD5C1C13408461CF
:101E8000F9D4026A03C902EBC30383E8030001200B
:101E9000F2E700002DE9F8431D46264B064653F8AD
:101EA0002170254B91461B8803803FB92846FEF7D9
:101EB000D5FB4FF0FF342046BDE8F8833B79032B78
:101EC0002ED01E4B01463846D3F80080FFF7CCFFDA
:101ED000044650B12846FEF7C1FB98F80430052BA4
:101EE00001D1FEF741FA0124E5E7B9F1000F03D172
:101EF0002846FEF7B3FBDEE798F804304046052B92
:101F00000CBF05210421C8F80C60FEF77FF941469B
:101F100007F11000FFF7BAF82846FEF79FFBE0E74D
:101F2000FB6803C883E803000B213846FEF76EF90F
:101F3000F2E700BFE8020020980200209C02002087
:101F400038B50446FEF782FB074B21461B88054641
:101F50002380064B1868FFF787FF04462846FEF7E4
:101F60007DFB204638BD00BF980200209C02002067
:101F700008B50F4B53F82130B3B1212202801A79F2
:101F8000032A0BD103C8DA6882E8030018460B2144
:101F9000FEF73CF90120074B186008BD01461846C2
:101FA000BDE80840FFF760BF4FF0FF30F5E700BF26
:101FB000E8020020A002002070B504460D46FEF79E
:101FC00050FB28B129462046BDE87040FFF7D0BF3E
:101FD000094B1B881BB2AB4204D12046BDE87040C0
:101FE000FFF7AEBFFEF732FB29460346012220462B
:101FF000BDE87040FFF74EBF980200200121FFF7B7
:10200000AFBE000008B5074B4A1E1B68114018629E
:1020100003D003200449FEF7DBFFC3E90511DA61B1
:1020200008BD00BF9C0200205E620008FFF772BE80
:1020300038B5044600F092FA0546C4F30E0400F0E9
:102040008DFA431BC3F30E039C42F8D838BD000041
:1020500030B587B004460D46FEF703FB48B11DB10D
:1020600003200E49FEF7B4FF2046FFF7E1FF07B05B
:1020700030BD0B4BCDE9020000900121684604936E
:10208000CDF814D0FFF716FE214601A82A4600F02D
:10209000E1F901216846FFF70DFEE8E75E620008FE
:1020A0002D20000838B5044C256800F057FA236845
:1020B000AB42F9D1184338BD90230020044B1A6875
:1020C00022B90449C0F30E0000F058BA704700BFAF
:1020D00088230020C921000810B5094A136843B1BC
:1020E0009C6881688C4207D303D15C6841688C424C
:1020F00002D90360106010BD1A461B68EFE700BFED
:10210000942300202DE9F047294E3268B24602F5AB
:102110000042326032681AB9264B1A6801321A60DE
:102120000020254B254C1A68186023688446194600
:10213000234FDFF880E0DFF88C803A6021B1DEF8D1
:1021400000508E68AE4217D900B12160BCF1000F7B
:1021500010D00021CCF800103AB3C3B151685868D0
:10216000814294BF11461946084612681B6882B91D
:1021700003603960BDE8F0874D68DAF8009005EA41
:1021800008054D45E0D18C4601200968D6E7114687
:10219000EAE70BB90260ECE754685D68AC4294BFB3
:1021A00014461C4604602046DFE73B60E2E700BFC0
:1021B000902300208C2300209823002094230020CB
:1021C0009C2300200080FFFF2DE9F04100F0C6F9BC
:1021D0000123324F324D3B602B68044683B14FF0F0
:1021E00000082B68B3B900F0B9F90330844230D944
:1021F000FFF788FF00F0B2F98442FBD30024F0E738
:10220000FFF780FF47F6FF7400F0A8F9A042FBD06B
:102210000024E4E75E6800F0A1F9844206D8C6F322
:102220000E03834202D91B1A022BDCD82B685E688E
:1022300000F094F9844203D8C6F30E068642F5D81E
:102240002B681A68C3E901882A60D3E90320904704
:10225000C7E72B6863B15E68FFF724FF033086424F
:10226000BFD3002330463B60BDE8F041FFF726BFF7
:1022700000F074F98442064602D9FFF743FFBDE738
:10228000C31CC3F30E03984204D900F067F98642D9
:10229000FBD9F2E747F6FF76E3E700BF882300208B
:1022A0009C230020134A136883420FD11B681360DC
:1022B00013B15868FFF702BF47F6FF70FAE798427C
:1022C00002D10368136070471A461B68002BF6D1D1
:1022D000094A13681BB9094A13682BB97047984219
:1022E000EFD01A461B68F5E79842EAD01A461B68F9
:1022F000F3E700BF9C2300209823002094230020B4
:1023000008B500F0D7F8BDE808404FF0FF30FFF700
:10231000D5BE0000F8B504460D46FFF7C3FE002306
:1023200023602B1A032B06460ED8C5F30E0500F0CA
:1023300015F98542FBD300F011F98542FBD8D4E9A9
:10234000033098470020F8BDFEF780F96368074620
:102350000BB9A36813B12046FFF7A4FF47F6FE733D
:10236000AB431F4B08BF023D1A68AE4288BF013223
:10237000A2601B68A26865609A4207D8194B1A6868
:1023800025F4FF4323F07F039A4206D02046FFF74F
:10239000A3FE3846FEF762F9D4E7C6F30E06B5424F
:1023A0000FD9114B19461A6812B15068854214D2E0
:1023B00022601C600B689C42EBD12846FFF77EFE32
:1023C000E7E70A4A136813B159688D4202D22360C5
:1023D0001460DEE71A461B68F5E713461268E3E768
:1023E0008C230020902300209C2300209823002091
:1023F00038B50446FEF72AF9636805460BB9A368A9
:1024000013B12046FFF74EFF2846BDE83840FEF7DF
:1024100025B9C36870B504460D46D3B1FFF7E8FF90
:10242000022D0ED800F09AF8064600F097F8831BAC
:10243000C3F30E039D42F8D8D4E90330BDE87040E1
:102440001847FFF72FFE29182046BDE87040FFF718
:1024500061BF70BD2DE9F04704460E4615461AB916
:10246000BDE8F047FFF7D5BFFEF7F0F86368074611
:102470000BB9A36813B12046FFF714FFDFF83090C3
:10248000FFF710FED9F800A08046FFF70BFE80454D
:10249000F6D83118554428BF013520466160A56043
:1024A000FFF71AFE3846BDE8F047FEF7D7B800BF81
:1024B0008C23002008B501F037FA01F025FA224BF1
:1024C0005A6B22F440325A635A6B42F482025A63C6
:1024D000CA22A3F504335A6253225A62DA6842F0E0
:1024E0008002DA60DA685106FCD500229A60802208
:1024F000DA60164A1A619A6822F040029A609A6875
:1025000022F400629A60DA6822F08002DA60104BEE
:10251000DA685206FCD4FF225A620E4BDA6822F4C3
:102520000032DA609A6842F400329A601A6842F423
:1025300000321A605A6942F400325A614FF4007254
:10254000054B5A6008BD00BF00380240FF7F1F00E6
:10255000002800400004014000E100E0064BDA687A
:1025600022F02002DA60DA689206FCD5986A5B688D
:10257000C0F5FF407F3070470028004010B5CA24E6
:10258000144B5C6253245C629C6824F488549C6005
:10259000DC68E407FCD5C0F5FF40DC697F30C0F3A0
:1025A0000E0040F0706044F08034DC61586498683C
:1025B00040F480709860986840F480509860D868C3
:1025C00020F48070D8600448016004490A60FF224A
:1025D0005A6210BD00280040A4230020A023002040
:1025E00010B50D4CE368DB050ED50C4B1B6813B121
:1025F0000B4A10689847E3680A4A23F48073E36043
:10260000536943F400335361074B1B681BB1BDE8AA
:102610001040FDF7A9BE10BD00280040A4230020F3
:10262000A023002000040140A002002013B51C4696
:10263000002800F0D18010392E2900F2D080DFE888
:1026400001F0A26ECECECECECECECE18CECECECE97
:10265000CECECECECECECECECE42CECECECECECE26
:10266000CECECECEBA744D7D868C959B545C65B033
:10267000C100012C03D903205C49FEF7A9FC1378A3
:10268000013B062B00F2AB80DFE803F0040C1114D1
:1026900017091A0000F012FE012002B010BD00F070
:1026A0001DFEF9E70021019001F0C2F8019800F049
:1026B00025FEF1E700F0B2FEEEE700F001FBEBE7EC
:1026C00000F0E0FCE8E7022CD5D81388062B40F098
:1026D0008980012100F0C9FD0220DEE7042CCAD860
:1026E000116800F049FD0420D7E7012CC3D8117808
:1026F000022977D800F0CAFECEE7012CBBD81178AA
:102700008B1F062B6ED800F051FFC5E7012CB2D805
:1027100011784B1E032B65D800F07AFFBCE7012C23
:10272000A9D8117800F05BFDB6E7012CA3D8117889
:10273000003918BF012100F0A7FFADE7012C9AD89E
:102740001178003918BF012101F0B2F8A4E7012C7B
:1027500091D8117800F0C3FF9EE7012C8BD8117837
:10276000003918BF012100F073FF95E7042C82D8CF
:10277000116801F05DF8B6E7042C3FF67CAF1168F4
:1027800001F058F8AFE7022C7FF475AFB2F90010F2
:1027900001F180039BB2FF2B24D849B200F0E3FF84
:1027A0009AE7012C3FF667AF1178003918BF012175
:1027B00000F0B2FF70E7022C3FF65DAF118801F028
:1027C00028F889E7012C3FF656AF1178003918BF79
:1027D000012101F04BF85FE76FF012005DE76FF049
:1027E00085005AE76FF0150057E700BF5E620008EA
:1027F00037B514460546002800F0B4803E2909D8B4
:1028000026290AD8112900F0878019293CD01029DF
:1028100000F09D806FF085006CE027391729F9D80A
:1028200001A252F821F000BFDD2800081528000899
:102830001528000815280008152800081528000884
:102840001528000815280008152800081528000874
:10285000152800081528000823290008E928000881
:102860002D2900083B2900084529000815280008E3
:1028700015280008F9280008052900080F29000874
:10288000152800085B2900081BB903203749FEF70B
:102890009FFB00F0AFFC00238DF80730062808D816
:1028A000DFE800F0040F07110713130001238DF870
:1028B0000730012220460DF1070101F09DFD0120A6
:1028C00018E00623F3E70423F1E71821284600F077
:1028D00041FBC3074CBF03230223E8E7012BD4D9F4
:1028E00006232380022005E0032BCED900F020FC34
:1028F0002060042003B030BD002BC6D000F0C4FD22
:102900002070DCE7002BC0D000F04EFEF8E7002B73
:10291000BBD000F07BFEF3E7002BB6D000F054FCF8
:10292000EEE7002BB1D000F09CFEE9E7002BACD025
:10293000C37FC3F3C0032370C1E7002BA5D000F011
:10294000CBFEDDE7002BA0D000F07CFED8E7012B0A
:102950009BD900F006FF2080C4E7002B95D000F043
:1029600081FFCDE76FF01200C4E700BF5E62000890
:1029700070B51221044600F0EDFA10F0480F05463C
:1029800004D0237D012B3AD0022B3ED02B0617D545
:10299000237D012B14D1637D012B11D104F16C0037
:1029A000FFF726FD80221221204600F0A6FA002122
:1029B000204600F0BBFBD4E901320B2120469847AA
:1029C000AE0704D5227D012A33D0022A4AD015F061
:1029D000150F68D0637D012B65D11221204600F0D0
:1029E000B9FAC30645D510221221204600F085FA17
:1029F000D4E9013210212046BDE870401847022179
:102A0000D4E9013220469847C0E704F15800FFF7A7
:102A1000EFFC637D012B04D108221221204600F037
:102A20006CFA0021204600F081FBD4E90132042138
:102A3000E8E7637D012BCAD1E37F1807C7D50222DF
:102A40002046122100F059FA1C21204600F082FA9B
:102A5000D4E9013200F03F00C4F880000D21204687
:102A60009847B4E7637D012BB1D1E37F1907AED559
:102A7000E6E71221204600F06DFA052205461221F4
:102A8000204600F03AFA1221204600F063FAD4E919
:102A9000013215F0010F00F0010014BF0F210E21CB
:102AA00084F88500A7E770BD38B50A4B044603617A
:102AB0004FF48073838200F01DF9054638B9204633
:102AC00000F086F9204600F0F9FB284638BD4FF0AB
:102AD000FF35FAE7E034C1332DE9F341002598468C
:102AE000437D0446012B0E4617468DF8075057D1FB
:102AF0004022122100F001FA1221204600F02AFAA9
:102B00008DF807009DF807309A0619D5122120226A
:102B1000204600F0F2F9E17F11F0200102D12046B9
:102B200000F004FB04F16C00FFF762FCD4E9013211
:102B300020460C2198476FF04C0002B0BDE8F081B0
:102B4000B8F1000F26D01921204600F003FA030641
:102B500041BF4042C0F38500404240B258BF40F3FD
:102B6000870088F801001A21204600F0F3F994F854
:102B7000843000EB101000F0FF009BB9753098F91D
:102B8000012088F80000002ABEBF98F800309B188A
:102B900088F800301321204600F0DCF9054646B9DC
:102BA0002846CAE72269124B9A428CBF63305C30D8
:102BB000E5E7B84219D8E17F11F0200102D12046A3
:102BC00000F0B4FA04F16C00FFF712FC102120466B
:102BD00000F0C0F90D210246204600F08EF92A4689
:102BE0003146204600F0EBF9DAE76FF06800A4E721
:102BF00040DD4A1F70B504460E4600F095FA0228E3
:102C00003AD0304600F078FE10F0FF0537D0637DF3
:102C100003B3012B2CD1204600F07AFD18B92946C8
:102C2000204600F09AFD00220E21204600F065F9B2
:102C300000220D21204600F060F9204600F0DAFA6B
:102C4000054630B9204600F049FB29460120FFF730
:102C5000FFF926B9204600F0E1FB002070BDB26804
:102C600022B120467168D2B200F0A4F93668F0E7CC
:102C7000044801F055FCEDE76FF08500EEE72846CB
:102C8000ECE700BFF063000810B4D0E901420A216C
:102C9000234610BC184710B4D0E901420B2123464B
:102CA00010BC184710B50020FEF750FD0446002068
:102CB000FEF74CFD031B9BB2B3F57A7FF7D310BD33
:102CC00010B50446006B431C11D00121FDF72AFF0B
:102CD000206BFDF7DEFFFFF7E5FF0021206BFDF71E
:102CE00021FF0A200021FFF7B3F9002010BD6FF08B
:102CF0000100FBE737B50446806A00F04BFED4E9DB
:102D00000A0100F069FE054600284FD1204600F078
:102D10002DF900284DDB284BA4666366274BE4673A
:102D2000A367FFF7BFFF2046FFF7CAFF94F8843080
:102D3000012B02D1204600F047F92046002100F087
:102D400060FA606B431C25D0012200211C4B0094CB
:102D5000FDF7ACFF00281DDBA06B411C12D1E06B1E
:102D6000421C07D001220021164B0094FDF79EFF64
:102D700000280FDB206C431C0FD10121E06CFDF714
:102D8000D1FE07E0012200210F4B0094FDF78EFFDA
:102D90000028E4DA284603B030BD012200210B4BA5
:102DA0000094FDF783FF0028E7DAF3E74FF0FF35E3
:102DB000F0E76FF00205EDE7892C0008972C00087A
:102DC000752E0008952E0008852E0008A52E0008F7
:102DD00010B50446204900F0CFF92046012100F04B
:102DE00044FA20460E2100F0BEFC2046002100F0EF
:102DF0004DFB20460C2100F0D9FB2046042100F0B9
:102E000007FC2046012100F03FFC2046002100F095
:102E10004FFD2046002100F062FC2046002100F01A
:102E20007BFC2046002100F021FD2046002100F01F
:102E300094FC2046082100F0ECFC20460A2100F01A
:102E4000FBFC2046002100F003FC2046BDE81040BA
:102E5000024900F0EFBC00BFE034C13380C3C901B8
:102E600010B4446824B123460021826810BC18477E
:102E700010BC704790F8882042F0010280F888204A
:102E8000FFF7EEBF90F8882042F0020280F8882019
:102E9000FFF7E6BF90F8882042F0040280F888200F
:102EA000FFF7DEBF90F8882042F0080280F8882003
:102EB000FFF7D6BFF7B504460D4616461F4600225B
:102EC00002234FF0FF31806A00F0B8FDE06AFDF7A1
:102ED000E0FE00234FF0FF31A06A009345F080022E
:102EE0003346019700F0EDFCE06AFDF7C7FEA06AEB
:102EF00003B0BDE8F04000F0DFBD07B501238DF859
:102F000007200DF10702FFF7D5FF03B05DF804FBC2
:102F1000F7B504460D4616461F46002202234FF021
:102F2000FF31806A00F08AFDE06AFDF7B2FE0023FF
:102F30004FF0FF31A06A05F07F02CDE9006700F095
:102F4000C0FCE06AFDF79AFEA06A03B0BDE8F0405D
:102F500000F0B2BD07B501230DF10702FFF7D8FF5E
:102F60009DF8070003B05DF804FB0000422138B56E
:102F70000546FFF7EFFF1228014609D022280CD1A1
:102F80000024094885F8844001F0CAFA002038BDC1
:102F90000123064885F88430F6E7054801F03AFA3F
:102FA0004FF0FF30F3E700BF2C6400084B640008CB
:102FB0007064000813460A460021FFF77BBF1346E2
:102FC0000A460021FFF7A4BFF8B509210446FFF720
:102FD000C1FF062106462046FFF7BCFF0721074632
:102FE0002046FFF7B7FF082105022046FFF7B2FF92
:102FF00045EA0745284300F029FF1FA3D3E9002332
:1030000000F09EFF01F0AEF900220921054620469E
:10301000FFF773FF3B212046FFF79CFF40F0400283
:103020003B212046D2B2FFF768FF3B212046FFF745
:1030300091FF8206F9D42046114900F09DF83B210A
:103040002046FFF787FF40F040023B212046D2B2E6
:10305000FFF753FF3B212046FFF77CFF8306F9D49F
:10306000204632460921FFF748FF29462046BDE8A1
:10307000F84000F081B800BF0000000080844E409E
:1030800000A1BC3310B5437D0446012B17D1FA22B1
:103090001121FFF732FF40212046FFF75BFF40215F
:1030A00000F0FC022046FFF728FF2046032100F035
:1030B0003DF82046BDE81040072100F0A2B810BD41
:1030C00010B5C27E0446C37FCAB9027F0B3A012AFB
:1030D0001AD843F00103E37794F88430BBB91D217B
:1030E0002046FFF737FF1D21E37F00F0FE0203F0CB
:1030F00001031A432046BDE81040FFF7FEBE012A37
:1031000002D1027F0C2AE4D003F0FE03E3E726217C
:103110002046FFF71FFFE37F00F0F702DB0003F01C
:10312000080326211A43E5E7007D704701757047C3
:1031300070B506210446FFF70DFF0721064620461D
:10314000FFF708FF082105462046FFF703FF40EA86
:10315000064040EA052000F079FE05A3D3E90023EC
:1031600000F0EEFE01F0FEF870BD00BFAFF300808E
:103170000000000080844E4038B5044608462161B6
:1031800000F064FE0EA3D3E9002301F003F801F080
:10319000E9F80546C0F3074206212046FFF7ADFED9
:1031A0002046C5F307220721FFF7A7FE2046EAB213
:1031B0000821BDE83840FFF7A0BE00BFAFF3008094
:1031C0000000000080844E40437D1BB1012B04D0E1
:1031D000002070473221FFF7BDBE2321FBE7437D6E
:1031E0000A4613B1012B03D070473221FFF785BE89
:1031F0002321FBE7012108B5FFF7ACFE00F0070033
:1032000008BD38B504460D46406B81B9FDF714FD85
:10321000A06BFDF711FDE06BFDF70EFD206CFDF7D7
:103220000BFDD4E913038BB1FDF733FD10E0FDF77F
:10323000E1FCA06BFDF7DEFCE06BFDF7DBFC206C36
:10324000FDF7D8FCD4E91303002BEDD0FDF716FDF4
:1032500001212046FFF77EFE00F0F8022A432046B7
:10326000BDE838400121FFF748BE38B50D460121C1
:103270000446FFF76FFEC0F3C0108542657500D1AC
:1032800038BD012DFCD120460021FFF7BAFF2946A9
:103290002046FFF75FFE60F07F0229462046D2B24B
:1032A000FFF72BFE204600224021FFF726FE204696
:1032B000BDE8384000224121FFF71FBE10B504468B
:1032C0005830FFF795F804F16C00FFF791F80021F2
:1032D0002046FFF796FF0023237510BD10B5044666
:1032E0005830FFF785F804F16C00FFF781F80121F1
:1032F0002046FFF786FF0023237510BD10B5437DE0
:103300000446012B54D13321FFF724FEE27F20F045
:103310004100920002F04002024342F00102D2B2A8
:1033200033212046FFF7E9FDE37F3B2113F0100F27
:1033300014BF19221D222046FFF7DFFD94F88430C8
:10334000012B19D1E37E3121082B204647D8FFF706
:1033500001FE312100F07F022046FFF7CEFD002262
:1033600030212046FFF7C9FDE37E012B04D840221F
:103370002F212046FFF7C1FDE37F1A0736D51D2216
:1033800011212046FFF7B9FD40212046FFF7E2FD5D
:1033900000F0330240212046FFF7AFFD00220F214D
:1033A0002046FFF7AAFD00220D212046FFF7A5FDCC
:1033B0000123216A237541B14FF47A738902B1FB6D
:1033C000F3F104F16C00FFF724F8E37F2046BDE839
:1033D00010409B064CBF05210621FFF712BFFFF7E7
:1033E000B9FD60F07F023121D2B2C2E70F22112174
:1033F0002046FFF782FD40212046FFF7ABFD40212C
:1034000000F03F022046FFF778FD40212046FFF7FD
:10341000A1FD00F0FC0242F00102BBE710B5437DC4
:103420000446012B12D1C37F1B0722D5F52211219F
:10343000FFF763FD40212046FFF78CFD00F03302CB
:103440004021204642F04002FFF757FD0223616A07
:10345000237541B14FF47A738902B1FBF3F104F1A2
:103460005800FEF7D6FF2046BDE810400321FFF7C5
:10347000C8BEF7221121FFF740FD40212046FFF78B
:1034800069FD00F03F02DBE7C07E704710B50446DF
:10349000C1761D21FFF75EFD94F88420E37E002AAB
:1034A00039D1012B00F03F0259D0022B63D01D21EE
:1034B0002046FFF722FD2046FFF702FE0C212046A2
:1034C000FFF748FD40F003020C212046D2B2FFF77F
:1034D00014FD94F88430002B53D11E212046FFF7B1
:1034E00039FD1E2140F00402D2B22046FFF705FD4F
:1034F000E27E022A52D121692A4B204699424FF09E
:10350000360147D9FFF7F9FC64223A212046BDE88D
:103510001040FFF7F2BC00F00F02092BC7D801A141
:1035200051F823F071350008773500087D35000823
:10353000AF3400084D3500085335000859350008F0
:103540005F350008653500086B35000842F0100251
:10355000ADE742F02002AAE742F03002A7E742F0CE
:103560004002A4E742F05002A1E742F060029EE769
:1035700042F070029BE742F0800298E742F090022E
:1035800095E726212046FFF7E5FC40F004022621BE
:10359000D2B2AAE7FFF7B1FC7F22B6E703223621B9
:1035A000B4E700BF40DD4A1F007F7047062938B5E9
:1035B00004460D4602D1C37F9B0726D51E21204617
:1035C0002577FFF7C7FC00F00F0242EA05121E2123
:1035D0002046D2B2FFF791FC2046FFF771FD237F12
:1035E000062B0BD1052231212046FFF786FC0C2249
:1035F0002046BDE838403721FFF77FBC0322312148
:103600002046FFF77AFC0A22F2E738BD407F704778
:1036100038B5044641770D461D21FFF79BFC94F811
:10362000843053B920F0380242EAC5022046BDE892
:1036300038401D21D2B2FFF760BC20F00E0242EAF2
:103640004502F3E7C07F80F02000C0F340107047D0
:10365000C37F19B943F02003C377704703F0DF033A
:10366000FAE708B590F8843043B91D21FFF772FCE2
:1036700010F0FD0F14BF0120002008BD1E21FFF730
:1036800069FC10F0FB0FF5E738B504460D46C37F23
:10369000A1B143F00403E37794F884308BB91D2182
:1036A0002046FFF757FC1D2120F0020242EA4502A6
:1036B000D2B22046BDE83840FFF71FBC03F0FB0341
:1036C000E9E71E212046FFF745FC20F0040242EA0C
:1036D00085021E21D2B2ECE72421FFF73BBC38B5AE
:1036E000044681770D464421FFF734FCE37F1B0736
:1036F0000DD560F07F0244212046D2B2FFF7FDFBDA
:103700002A462046BDE838402421FFF7F6BB38BDE5
:10371000C07FC0F34000704738B505460C46C37FF4
:10372000A1B143F00203EB771D212846FFF712FCFD
:1037300095F884306BB920F0040242EA8402D2B2D8
:103740002846BDE838401D21FFF7D7BB03F0FD0335
:10375000E9E700F0FE022243F2E70A462221FFF7E2
:10376000CCBB807E7047F8B5064681760C460921B1
:10377000FFF7F0FB96F884300546002B0CBF5A216A
:103780004D213046FFF7E6FB96F854300746012BF3
:1037900014BF0020802096F8843005F07F05054393
:1037A000012B08BF45F0700508226DB20A21304692
:1037B000FFF7A3FB002D25F00F0223DA112C18DDF3
:1037C000142CA8BF142447F00707FFB2053C22437E
:1037D00009213046D2B2FFF790FB96F884303A4682
:1037E000002B3046BDE8F8400CBF5A214D21FFF7B1
:1037F00084BB022CB8BF022407F0F80747F0040787
:10380000023CE4E70E2CA8BF0E2444EAE474013421
:10381000DDE738B505460C4601830A0A2021FFF78B
:103820006CFB2846E2B22121BDE83840FFF765BBBA
:10383000016270474162704738B50D461E2104464B
:10384000FFF788FBC5F3012200F0FC0002431E21B4
:103850002046FFF752FB2046EAB21F21BDE8384060
:10386000FFF74BBBC07FC0F30010704738B504466C
:103870000D46C37FC9B143F01003E37733212046DF
:10388000FFF768FB85F0010200F0BE000243332120
:103890002046FFF732FB002D2046BDE8384014BF1C
:1038A00019221D223B21FFF728BB03F0EF03E4E7B9
:1038B000C37F19B143F00803C377704703F0F703E0
:1038C000FAE7F0B585B000278DF80F2001220446F5
:1038D0000D461E46CDE900720DF10F0300F000F910
:1038E0000B9B3A4601930A9B294600932046334698
:1038F00000F0F6F805B0F0BD0346002003B97047AC
:103900009A681B681044F9E7024A136843F480730D
:103910001360704700700040024A136823F48073FC
:10392000136070470070004008B5FFF7EDFF064BCD
:103930005A6B42F480725A635A6B9205FCD5BDE80B
:103940000840FFF7E9BF00BF00380240F8B5104C4F
:10395000012104EB401467683846FDF7E3F8A668D8
:1039600000213046FDF7DEF8E56801212846FDF725
:10397000D9F8247D38462146FDF711F92146304615
:10398000FDF70DF921462846BDE8F840FDF707B9D7
:10399000A86400080128F8B5044603D903200B49A0
:1039A000FDF716FB00250A4B0A4E43F8205067012D
:1039B00006EB4414FFF7CAFFA169207FFDF7DAFD8B
:1039C000F3591D809D839D80F8BD00BF5E62000895
:1039D000A8230020A8640008012838B50C4624D884
:1039E0004A1C25D021F0FF0313F5807F02D111F08E
:1039F000FF0F1DD114F5807F0FD10F4C04EB401445
:103A000025696B1C14D001212846FDF78BF8284648
:103A1000217DFDF7C4F8002038BD01212046FDF7C7
:103A200081F82046FDF72AF9F5E74FF0FF30F3E77C
:103A30006FF00100F0E700BFA86400082DE9F0472F
:103A400004469846DFF86C90184815460F464FEA32
:103A5000441A012100EB840009EB4414FEF72AF913
:103A6000267FA1693046FDF785FD114806EB8606E5
:103A7000064416F8082059F80A4045EAC20545F000
:103A8000040517F5807F258015BF2388A3889BB286
:103A90009BB214BF43F4407343F004034FF00000A3
:103AA00014BF2380A380BDE8F08700BFA8230020B7
:103AB000E8640008A8640008074A4301D2580023BC
:103AC0001380938823F004031B041B0C9380034B87
:103AD00003EB8000FEF71EB9A8640008A8230020AD
:103AE0002DE9F8430F46DDE9086891461D4623B9E4
:103AF0001EB903203249FDF76BFA324B40011C58C6
:103B000017F5807F23889BB243F04003238004D0C5
:103B1000791C02D03846FDF7BCF8002E2FD1A844FE
:103B2000A84523D123899B07FCD523891E06FCD4F5
:103B30002389DD0721D423899907FCD523891A0617
:103B4000FCD4B9F1000F39D17B1C37D0238817F58D
:103B5000807F23F040034FEA03434FEA134323805F
:103B60002CD03846BDE8F843FDF788B823899A077A
:103B7000FCD515F8013B2373D2E7A389D8E7DDB95B
:103B8000B044B045D7D023899807FCD52573238945
:103B9000D907FCD5237B06F8013BF2E7228992077F
:103BA000FCD5EA5C22732289D007FCD5227BF25433
:103BB00001339845F2D1BEE70023FAE7BDE8F88368
:103BC0005E620008A864000881F0004102E000BFC6
:103BD00083F0004330B54FEA41044FEA430594EACD
:103BE000050F08BF90EA020F1FBF54EA000C55EA08
:103BF000020C7FEA645C7FEA655C00F0E2804FEAD9
:103C00005454D4EB5555B8BF6D420CDD2C4480EABA
:103C1000020281EA030382EA000083EA010180EAEA
:103C2000020281EA0303362D88BF30BD11F0004F38
:103C30004FEA01314FF4801C4CEA113102D040426E
:103C400061EB410113F0004F4FEA03334CEA1333A9
:103C500002D0524263EB430394EA050F00F0A780C1
:103C6000A4F10104D5F1200E0DDB02FA0EFC22FABC
:103C700005F2801841F1000103FA0EF2801843FAB0
:103C800005F359410EE0A5F120050EF1200E012AA1
:103C900003FA0EFC28BF4CF0020C43FA05F3C018DF
:103CA00051EBE37101F0004507D54FF0000EDCF158
:103CB000000C7EEB00006EEB0101B1F5801F1BD301
:103CC000B1F5001F0CD349085FEA30004FEA3C0C05
:103CD00004F101044FEA445212F5800F80F09A80FB
:103CE000BCF1004F08BF5FEA500C50F1000041EBFF
:103CF000045141EA050130BD5FEA4C0C404141EB03
:103D00000101013C28BFB1F5801FE9D291F0000FFD
:103D100004BF01460020B1FA81F308BF2033A3F1AC
:103D20000B03B3F120020CDA0C3208DD02F1140CA3
:103D3000C2F10C0201FA0CF021FA02F10CE002F1DE
:103D40001402D8BFC2F1200C01FA02F120FA0CFCD7
:103D5000DCBF41EA0C019040E41AA2BF01EB045120
:103D6000294330BD6FEA04041F3C1CDA0C340EDC1E
:103D700004F11404C4F1200220FA04F001FA02F361
:103D800040EA030021FA04F345EA030130BDC4F11F
:103D90000C04C4F1200220FA02F001FA04F340EA14
:103DA0000300294630BD21FA04F0294630BD94F0C5
:103DB000000F83F4801306BF81F480110134013DAC
:103DC0004EE77FEA645C18BF7FEA655C29D094EA1D
:103DD000050F08BF90EA020F05D054EA000C04BF9B
:103DE0001946104630BD91EA030F1EBF0021002086
:103DF00030BD5FEA545C05D14000494128BF41F025
:103E0000004130BD14F580043CBF01F5801130BD88
:103E100001F0004545F0FE4141F470014FF0000013
:103E200030BD7FEA645C1ABF194610467FEA655CC4
:103E30001CBF0B46024650EA013406BF52EA033566
:103E400091EA030F41F4002130BD00BF90F0000F54
:103E500004BF0021704730B54FF4806404F1320490
:103E60004FF000054FF0000150E700BF90F0000F49
:103E700004BF0021704730B54FF4806404F1320470
:103E800010F0004548BF40424FF000013EE700BF40
:103E900042004FEAE2014FEA31014FEA02701FBFD0
:103EA00012F07F4393F07F4F81F06051704732F002
:103EB0007F4208BF704793F07F4F04BF41F4002159
:103EC000704730B54FF4607401F0004521F00041B7
:103ED0001CE700BF50EA010208BF704730B54FF041
:103EE00000050AE050EA010208BF704730B511F042
:103EF000004502D5404261EB41014FF4806404F17A
:103F000032045FEA915C3FF4D8AE4FF003025FEAFF
:103F1000DC0C18BF03325FEADC0C18BF033202EB83
:103F2000DC02C2F1200300FA03FC20FA02F001FADD
:103F300003FE40EA0E0021FA02F11444BDE600BF80
:103F400070B54FF0FF0C4CF4E06C1CEA11541DBF2F
:103F50001CEA135594EA0C0F95EA0C0F00F0DEF8FA
:103F60002C4481EA030621EA4C5123EA4C5350EADF
:103F7000013518BF52EA033541F4801143F4801330
:103F800038D0A0FB02CE4FF00005E1FB02E506F0C1
:103F90000042E0FB03E54FF00006E1FB03569CF016
:103FA000000F18BF4EF0010EA4F1FF04B6F5007F1C
:103FB00064F5407404D25FEA4E0E6D4146EB06068E
:103FC00042EAC62141EA55514FEAC52040EA5E5017
:103FD0004FEACE2EB4F1FD0C88BFBCF5E06F1ED8C1
:103FE000BEF1004F08BF5FEA500E50F1000041EBF8
:103FF000045170BD06F0004646EA010140EA0200A5
:1040000081EA0301B4EB5C04C2BFD4EB0C0541EAC6
:10401000045170BD41F480114FF0000E013C00F3DB
:10402000AB8014F1360FDEBF002001F0004170BDFF
:10403000C4F10004203C35DA0C341BDC04F1140418
:10404000C4F1200500FA05F320FA04F001FA05F2A4
:1040500040EA020001F0004221F0004110EBD37071
:1040600021FA04F642EB06015EEA430E08BF20EA9D
:10407000D37070BDC4F10C04C4F1200500FA04F340
:1040800020FA05F001FA04F240EA020001F00041D2
:1040900010EBD37041F100015EEA430E08BF20EA45
:1040A000D37070BDC4F1200500FA05F24EEA020E8D
:1040B00020FA04F301FA05F243EA020321FA04F0BC
:1040C00001F0004121FA04F220EA020000EBD37073
:1040D0005EEA430E08BF20EAD37070BD94F0000F73
:1040E0000FD101F00046400041EB010111F4801FA7
:1040F00008BF013CF7D041EA060195F0000F18BF58
:10410000704703F00046520043EB030313F4801F93
:1041100008BF013DF7D043EA0603704794EA0C0F4D
:104120000CEA135518BF95EA0C0F0CD050EA410663
:1041300018BF52EA4306D1D181EA030101F00041E0
:104140004FF0000070BD50EA410606BF1046194608
:1041500052EA430619D094EA0C0F02D150EA013614
:1041600013D195EA0C0F05D152EA03361CBF104655
:1041700019460AD181EA030101F0004141F0FE41F4
:1041800041F470014FF0000070BD41F0FE4141F478
:10419000780170BD70B54FF0FF0C4CF4E06C1CEA78
:1041A00011541DBF1CEA135594EA0C0F95EA0C0F2D
:1041B00000F0A7F8A4EB050481EA030E52EA0335E8
:1041C0004FEA013100F088804FEA03334FF0805509
:1041D00045EA131343EA12634FEA022245EA111536
:1041E00045EA10654FEA00260EF000419D4208BFE7
:1041F000964244F1FD0404F5407402D25B084FEA94
:104200003202B61A65EB03055B084FEA32024FF43F
:1042100080104FF4002CB6EB020E75EB030E22BF9C
:10422000B61A754640EA0C005B084FEA3202B6EB5C
:10423000020E75EB030E22BFB61A754640EA5C000B
:104240005B084FEA3202B6EB020E75EB030E22BF9B
:10425000B61A754640EA9C005B084FEA3202B6EB9C
:10426000020E75EB030E22BFB61A754640EADC005B
:1042700055EA060E18D04FEA051545EA16754FEABD
:1042800006164FEAC30343EA52734FEAC2025FEADB
:104290001C1CC0D111F4801F0BD141EA00014FF06A
:1042A00000004FF0004CB6E711F4801F04BF01433B
:1042B0000020B4F1FD0C88BFBCF5E06F3FF6AFAE57
:1042C000B5EB030C04BFB6EB020C5FEA500C50F1E7
:1042D000000041EB045170BD0EF0004E4EEA11316A
:1042E00014EB5C04C2BFD4EB0C0541EA045170BD71
:1042F00041F480114FF0000E013C90E645EA060EB5
:104300008DE60CEA135594EA0C0F08BF95EA0C0FE2
:104310003FF43BAF94EA0C0F0AD150EA01347FF42A
:1043200034AF95EA0C0F7FF425AF104619462CE701
:1043300095EA0C0F06D152EA03353FF4FDAE104664
:10434000194622E750EA410618BF52EA43067FF4B5
:10435000C5AE50EA41047FF40DAF52EA43057FF445
:10436000EBAE12E74A0011D212F5001211D20DD5B0
:104370006FF47873B3EB62520ED44FEAC12343F06B
:10438000004343EA505323FA02F070474FF0000015
:10439000704750EA013002D14FF0FF3070474FF0C4
:1043A00000007047014B1868704700BF2C020020C6
:1043B00070B500260C4D0D4C641BA410A64209D10B
:1043C000FBF7B2FE00260A4D0A4C641BA410A6425D
:1043D00005D170BD55F8043B98470136EEE755F816
:1043E000043B98470136F2E7B8660008B866000853
:1043F000B8660008B86600080A44914200F1FF332D
:1044000000D1704710B511F8014B914203F8014FEC
:10441000F9D110BD0FB40A4B13B51C6824B1A369C0
:1044200013B9204600F088FA05AB2046049AA1682B
:10443000019300F079FC02B0BDE8104004B0704771
:104440002C02002070B50E46054618B183690BB9E1
:1044500000F072FAAB69AC6813B9284600F06CFA48
:104460002C4B9C4220D16C68636EDB0705D4A3897A
:10447000980502D4A06D00F01AFBA38919071DD579
:104480002369DBB1013EA36816F8011F013BA3605D
:1044900039BB002B38DA22460A21284600F060F8A2
:1044A000013011D00A2511E01B4B9C4201D1AC68B0
:1044B000DAE71A4B9C4208BFEC68D5E7214628464C
:1044C00000F0A0F80028DDD04FF0FF35636EDA076A
:1044D00005D4A3899B0502D4A06D00F0E9FA284613
:1044E00070BD002B04DAA2699A4206DC0A2904D0C6
:1044F00023685A1C22601970C5E72246284600F03E
:104500002FF80130BFD1DFE70A2523685A1C22604B
:104510001D70DBE71865000838650008F8640008BE
:10452000024B01461868FFF78DBF00BF2C02002028
:104530000FB40A4B13B51C6824B1A36913B9204604
:1045400000F0FAF905AB2046049A6168019301F086
:1045500055F802B0BDE8104004B070472C020020AE
:10456000F8B50E461446054618B183690BB900F03C
:10457000E3F9214B9C422BD16C68A369A360A3890A
:104580001A072FD523696BB323692068F6B2C01AC6
:1045900063693746834204DC2146284600F026F949
:1045A00030BBA3680130013BA36023685A1C226022
:1045B0001E706369834204D0A389DB0706D50A2EE7
:1045C00004D12146284600F011F988B93846F8BDD3
:1045D0000A4B9C4201D1AC68CFE7094B9C4208BF13
:1045E000EC68CAE72146284600F00CF80028CBD03A
:1045F0004FF0FF37EAE700BF18650008386500088C
:10460000F8640008324B70B51D6806460C4625B1AB
:10461000AB6913B9284600F08FF92E4B9C420FD19D
:104620006C68A389B4F90C2019072CD4DD0611D4C9
:104630000923336042F040034FF0FF30A3813EE096
:10464000254B9C4201D1AC68EBE7244B9C4208BF50
:10465000EC68E6E7580712D5616B41B104F14403F9
:10466000994202D0304600F091FA00236363A38997
:1046700023F02403A3810023636023692360A389BB
:1046800043F00803A38123694BB9A38903F4207382
:10469000B3F5007F03D02146304600F02FFAA08901
:1046A000B4F90C2010F001030AD00023A360636961
:1046B0005B42A361236943B910F08000BAD170BD99
:1046C000810758BF6369A360F4E70020F7E700BFE4
:1046D0002C0200201865000838650008F8640008FE
:1046E0008A892DE9F041054610070C4658D44B68DD
:1046F000002B05DC0B6C002B02DC0020BDE8F081F8
:10470000E66A002EF9D0002312F480522F682B6045
:1047100032D0606DA3895A0705D56368C01A636BF0
:104720000BB1236CC01A00230246E66A2846216AB0
:10473000B047431CA38906D129681D292CD82A4AD1
:10474000CA40D60728D5002262602269D9042260B7
:1047500004D5421C01D12B6803B96065616B2F60E1
:104760000029CAD004F14403994202D0284600F03F
:104770000DFA00206063C1E7216A01232846B04793
:10478000411CC7D12B68002BC4D01D2B01D0162B88
:1047900001D12F60B1E7A38943F04003A381ADE7C6
:1047A0000F69002FA9D0930718BF00230E6808BF18
:1047B0004B69A6EB07080F608B60B8F1000F9CDD1A
:1047C00043463A462846216AA66AB047002806DCD6
:1047D000A3894FF0FF3043F04003A3818EE70744E5
:1047E000A8EB0008E9E700BF0100402038B50B69DD
:1047F00005460C4613B90025284638BD18B1836913
:104800000BB900F099F8144B9C421BD16C68B4F9B9
:104810000C30002BEFD0626ED00704D4990502D47F
:10482000A06D00F044F928462146FFF759FF636E5A
:104830000546DA07E0D4A3899B05DDD4A06D00F01E
:1048400037F9D9E7054B9C4201D1AC68DFE7044B4F
:104850009C4208BFEC68DAE7186500083865000874
:10486000F8640008014620B9044B0549186800F0B7
:10487000FEB8044B1868FFF7B9BF00BFF464000826
:10488000ED4700082C020020002310B50446C0E9C3
:104890000033C0E90433836081814366C281836150
:1048A000194608225C3000F069F9054B2462636206
:1048B000044BA362044BE362044B236310BD00BFAF
:1048C000815A0008A35A0008DB5A0008FF5A000862
:1048D000014900F0CCB800BFED47000870B568256D
:1048E0004A1E55430E4605F1740100F09BF904463B
:1048F00040B10021C0E900160C30A06005F168024B
:1049000000F03CF9204670BD014800F0D0B800BF6F
:10491000C0230020014800F0CBB800BFC023002016
:10492000014800F0C4B800BFBB230020014800F0DC
:10493000BFB800BFBB23002010B50446FFF7F0FF4F
:10494000A3691BB1BDE81040FFF7F0BFC4E9123303
:104950002365134B134A1B68A262A34208BF0123BD
:10496000204608BFA36100F01FF86060204600F0F9
:104970001BF8A060204600F017F800220421E06038
:104980006068FFF781FF01220921A068FFF77CFF23
:1049900002221221E068FFF777FF0123A361D1E72C
:1049A000F4640008D1480008F8B50746FFF7ACFFEB
:1049B0001E4B1E68B36913B93046FFF7BDFF48367A
:1049C000D6E90134013B03D533680BB33668F7E70A
:1049D000B4F90C50D5B9164B04F15800E360656684
:1049E00000F064F8FFF796FF08222946C4E9015554
:1049F000C4E904552560A56104F15C0000F0BEF82F
:104A0000C4E90D55C4E912552046F8BD6834D9E70C
:104A100004213846FFF762FF044630600028D5D1F4
:104A2000FFF778FF0C233B60EEE700BFF46400085B
:104A30000100FFFF2DE9F0410F46002600F1480478
:104A4000D4E90185B8F1010805D52468002CF7D117
:104A50003046BDE8F081AB89012B06D9B5F90E309F
:104A6000013302D02846B84706436835EAE72DE906
:104A7000F84306468846002700F14804D4E901952A
:104A8000B9F1010905D52468002CF7D13846BDE8F5
:104A9000F883AB89012B07D9B5F90E30013303D068
:104AA00029463046C04707436835E9E770477047F5
:104AB000704770B50E46B1F90E10144600291D4618
:104AC00096B007DA00232B60B3891A0610D44FF48E
:104AD00080630EE06A46FBF75BFB0028F2DB019A7D
:104AE00002F47042A2F500535A425A412A60EEE79E
:104AF00040230020236016B070BD00008B8973B581
:104B00009D0706460C4607D504F147032360236141
:104B10000123636102B070BD6A4601ABFFF7C9FFB4
:104B200000990546304600F07DF848B9B4F90C30DC
:104B30009A05EFD423F0030343F00203A381E3E7D4
:104B40000D4BB362A389206043F08003A381009BD7
:104B500020616361019B5BB13046B4F90E10FBF735
:104B60001CFB28B1A38923F0030343F00103A381B5
:104B7000A0890543A581CDE7D1480008034602443A
:104B8000934200D1704703F8011BF9E738B5054699
:104B9000002943D051F8043C0C1F002BB8BFE41887
:104BA00001F096F91E4A1368104633B96360146029
:104BB0002846BDE8384001F091B9A3420AD92168DE
:104BC0006218934201BF1A685B68521822606360E2
:104BD0000460EDE71A465B680BB1A342FAD911688D
:104BE0005018A0420BD12068014450188342116034
:104BF000DED118685B68014411605360D8E702D9C0
:104C00000C232B60D4E7206821188B4201BF196860
:104C10005B680918216063605460C9E738BD00BF54
:104C2000B0230020F8B5CD1C25F0030508350C2D68
:104C300038BF0C25002D064601DBA94203D90C2301
:104C400033600020F8BD01F043F921490A68144699
:104C50009CB9204F3B6823B921463046FBF768FAE0
:104C6000386029463046FBF763FA431C23D10C23F6
:104C70003046336001F032F9E3E723685B1B17D459
:104C80000B2B03D923601C44256004E06368A24217
:104C90000CBF0B605360304601F020F904F10B00AB
:104CA000231D20F00700C21ACCD01B1AA350C9E75D
:104CB00022466468CCE7C41C24F00304A042E3D07D
:104CC000211A3046FBF734FA0130DDD1CFE700BFBF
:104CD000B0230020B4230020936810B4013B002BC4
:104CE000936007DA9469A34201DB0A2902D110BC60
:104CF000FFF736BC1368581C10601970084610BCCA
:104D00007047F8B506460F461446D518AC4201D197
:104D1000002007E03A46304614F8011BFFF7DCFF9D
:104D2000431CF3D1F8BD00002DE9F04F0D461446A9
:104D3000984606469DB018B183690BB9FFF7FCFD94
:104D4000894B9D421BD175686B6ED90705D4AB8921
:104D50009A0502D4A86DFFF7AAFEAB891B0701D5FF
:104D60002B69EBB929463046FFF74CFCC0B16B6E9E
:104D7000DC070ED54FF0FF301DB0BDE8F08F7B4B48
:104D80009D4201D1B568DFE7794B9D4208BFF568C8
:104D9000DAE7AB899805EDD4A86DFFF789FEE9E75E
:104DA0000023099320238DF8293030234FF0010987
:104DB000CDF80C80DFF8BC818DF82A3023469A4666
:104DC00013F8012B0AB1252AF9D1BAEB040B0BD049
:104DD0005B46224629463046FFF793FF013000F03C
:104DE000AA80099A5A4409929AF80030002B00F0E0
:104DF000A28000234FF0FF32CDE905230AF1010A1A
:104E0000049307938DF853301A935446052214F8EF
:104E1000011B584801F04EF8049AD8B9D10644BF96
:104E200020238DF85330130744BF2B238DF85330C4
:104E30009AF800302A2B15D0544600204FF00A0C67
:104E4000079A214611F8013B303B092B4ED9B0B1EE
:104E5000079214E0A0EB080309FA03F31343A246F8
:104E60000493D2E7039B191D1B680391002BBBBF62
:104E70005B4242F0020207930793B8BF0492237883
:104E80002E2B0CD163782A2B35D1039B02341A1DAB
:104E90001B680392002BB8BF4FF0FF330593DFF878
:104EA000E4A003225046217801F004F840B14023E9
:104EB000A0EB0A0003FA00F0049B013403430493BF
:104EC00014F8011B06222C488DF8281000F0F2FF80
:104ED00000283FD0294B1BBB039B073323F007035C
:104EE00008330393099B3B44099367E70C46012071
:104EF0000CFB0232A5E700234FF00A0C19460134DF
:104F00000593204610F8012B303A092A03D9002BCB
:104F1000C5D00591C3E7044601230CFB0121F0E74E
:104F200003AB00932A463046154B04A9AFF300802B
:104F30000746781CD6D16B6ED90705D4AB899A0584
:104F400002D4A86DFFF7B4FDAB895B063FF512AF45
:104F5000099811E703AB00932A463046084B04A991
:104F600000F082F8E4E700BF186500083865000823
:104F7000F864000858650008626500080000000039
:104F8000034D00085E6500082DE9F0471646994676
:104F90008A680B6907469342B8BF1346336091F89D
:104FA00043200C46DDF820800AB1013333602368CA
:104FB000990642BF336802333360256815F0060551
:104FC00006D104F1190AE36832689B1AAB4228DC67
:104FD00094F84320131E226818BF012392062DD493
:104FE0004946384604F14302C047013020D02368C7
:104FF000E56803F00603042B18BF002532684FF064
:105000000006A36808BFAD1A226908BF25EAE57546
:105010009342C4BF9B1AED181A34B5421AD100202E
:1050200008E00123524649463846C047013003D1C3
:105030004FF0FF30BDE8F0870135C4E73020E118BC
:1050400081F843005A1C94F845102244023382F838
:105050004310C5E70123224649463846C047013080
:10506000E6D00136D9E700002DE9FF470C46277E40
:105070009146782F80469A460C9904F1430207D84E
:10508000622F0AD8002F00F0D980582F00F0A4809A
:1050900004F1420684F842703AE0A7F16303152B4D
:1050A000F6D801A050F823F001510008155100086E
:1050B000915000089150000891500008915000084C
:1050C00015510008915000089150000891500008B7
:1050D000915000082352000845510008055200086D
:1050E0009150000891500008455200089150000866
:1050F0004551000891500008915000080D520008D9
:105100000B6804F142061A1D1B680A6084F84230DD
:105110000123A4E0256808682E0600F104030AD5DF
:1051200005680B60002D03DA2D236D4284F84330AF
:105130000A235E4819E015F0400F05680B6018BFA0
:105140002DB2EFE70B682568181D0860280601D509
:105150001D6802E06906FBD51D886F2F0CBF082370
:105160000A235248002184F843106668002EA8BF25
:105170002168A660A4BF21F0040121600DB9002EB2
:105180004DD01646B5FBF3F103FB1157C75D06F88A
:10519000017D2F46BB420D46F4D9082B0BD1236865
:1051A000DF0708D5236961689942DEBF302306F81E
:1051B000013C06F1FF36921B22614B4621464046D8
:1051C000CDF800A003AAFFF7DFFE01304CD14FF06D
:1051D000FF3004B0BDE8F087344884F845700E68AD
:1051E000236856F8045B1F060E6014D5D90744BF28
:1051F00043F0200323601DB9236823F020032360BC
:105200001023AFE7236843F0200323607823284866
:1052100084F84530E3E75E0648BFADB2E6E71646E0
:10522000BBE70B6826681D1D60690D6035061B68AD
:1052300001D5186002E07106FBD5188000231646E0
:105240002361BAE70B681A1D0A601E680021304608
:10525000626800F02FFE08B1801B60606368236104
:10526000002384F84330A8E7324649464046236984
:10527000D0470130ABD023689B0713D4E068039B71
:105280009842B8BF1846A4E7012332464946404633
:10529000D04701309BD00135E36803995B1AAB42DC
:1052A000F2DCEBE7002504F11906F5E76965000873
:1052B0007A6500082DE9F04F1D464B6E0646DF0764
:1052C0000C469246ADF5237D05D48B89980502D412
:1052D000886DFFF7ECFB0023CDE94433AE4B0DF1B5
:1052E0000408A093AD4BAE4FDFF8B892CDF818810B
:1052F000A19300959AF800B0BBF1000F00F0708107
:105300001BF807300AF1010513F0080319D0636890
:10531000002B0FDD23681A78BA5C110701D4AA4666
:10532000E8E7459A01330132459262682360013A09
:105330006260ECE721463046A19B98470028E9D0FF
:10534000EDE7BBF1250F40F08680419343939AF837
:1053500001300A222A2B02BF10230AF102054193D1
:10536000AA461AF8011BA1F13003092B1ED903220A
:105370008C4800F09FFD40B101235546A0EB090089
:1053800003FA00F0419B1843419015F8013B782B3C
:1053900007D8572B11D8252B5DD057D8002B00F0FC
:1053A000D680032347930A2342938BE0439B5546C1
:1053B00002FB0313303B4393D2E7A3F15802202AA8
:1053C000EFD801A151F822F0AF540008A353000810
:1053D000A35300080D550008A3530008A353000869
:1053E000A3530008A3530008A3530008A3530008C5
:1053F000A353000823550008F9540008535400082B
:105400005354000853540008A3530008FD540008E7
:10541000A3530008A3530008A3530008A353000894
:105420003355000805550008A7540008A353000889
:10543000A35300082F550008A3530008F95400088F
:10544000A3530008A3530008AF540008453B022BA8
:10545000A7D8052335E06368002B0DDD23681A7893
:105460005A4540F0BD80013362682360459B013A94
:1054700001336260459352E721463046A19B98472D
:105480000028EBD0636EDA0740F1A2804498002830
:1054900066D0A38913F0400F18BF4FF0FF300DF511
:1054A000237DBDE8F08F419A42F020024192419A5B
:1054B00042F40072419210226F2B34BF0323042365
:1054C000429247936368002B4DDD419B5B0604D4F9
:1054D00023681A78BA5C10074CD4479B022B63DC14
:1054E0006B462246304641A900F0B0F8012877D03B
:1054F00002287FF414AFC5E70A22DDE700234293B8
:105500000323DEE7082342930423DAE729464046D3
:1055100000F07CFA419B054643F040034193012390
:10552000CFE7419B43F0400341930023C9E70223A7
:10553000C7E74198C3063FF5F2AE009B459A191D97
:1055400000911B68C0074CBF1A801A60E7E6636EC3
:10555000D80705D4A389990502D4A06DFFF7A8FA4E
:105560004FF0FF309BE721463046A19B984700282B
:10557000ABD087E7459A013245926268013A002A2A
:10558000626002DD01332360A2E721463046A19B21
:10559000984700289CD075E7855D0008F5580008FD
:1055A000B56500085E650008042B06DC6B462246E4
:1055B000304641A900F0A2F898E70F4B002B3FF4CA
:1055C000AEAE6B462246304641A9AFF300808DE770
:1055D000A38999053FF55AAFA06DFFF769FA55E722
:1055E000636EDA0705D4A3899B0502D4A06DFFF78B
:1055F0005FFA449853E700BF000000002DE9F04136
:105600000C4616461F46054618B183690BB9FFF7CD
:1056100093F90B4B9C4208D16C683B4632462146BD
:105620002846BDE8F041FFF745BE064B9C4201D13C
:10563000AC68F2E7044B9C4208BFEC68EDE700BFA2
:105640001865000838650008F86400082DE9F8437B
:1056500015468A6880460C4632B98A69002A0CBF12
:1056600001224FF0FF328A6000272268DFF888901D
:10567000D1065FBF1A68111D19601668A06988B14C
:10568000012807D12B681A7863699B5C53B927BB43
:10569000BDE8F883022820D12B681B7813F8093065
:1056A0001B071AD423680137DA065EBF2B681B7804
:1056B00006F8013B2A686B6801322A60A268013B48
:1056C000013A6B60A26042B1002BD7DC294640460C
:1056D000D4F8803198470028D0D0236813F0100305
:1056E00005D1E2680132E260A26902B13370236938
:1056F00000201F442761CBE7B56500082DE9F04F76
:105700000C469846724B87B08246164693E80700CF
:1057100003AB83E807006F4BA1696F4A2746032953
:1057200018BF1A46A36801925A1EB2F5AE7F81BF18
:105730006FF4AE7503EB050940F25D13A36057F8F3
:105740001C3B98BF4FF000093D464FF0000B43F45F
:1057500050632360316803AB0222097853F82B00B1
:1057600000F0A8FB28B3BBF1010F59D162682AB938
:1057700008232268636042F400722260226822F4E7
:10578000A0622260A268511EA16092B13268511CD1
:105790003160127805F8012B7268013A002A7260B4
:1057A00007DC31465046D4F880219047002840F06D
:1057B00085800BF1010BBBF1030FCBD163680BB9F3
:1057C0000A236360636845496069C91A00F01EF9DD
:1057D0004FF0000BA3682268002B3DD03168606950
:1057E00091F800C010F80C00002835D0BCF1300F43
:1057F00024D1100522D50BF1010BB9F1000F03D014
:10580000013309F1FF39A3607368013B002B73601A
:105810001BDD336801333360A368013BA360D9E724
:10582000BBF1020FAED1226802F4C061B1F5007F76
:10583000BFD1102342F480726360A2E722F41062A9
:1058400022600B7805F8013BDEE731465046D4F87C
:10585000803198470028DFD02368D9050DD5BD4297
:1058600009D915F8011C32465046D4F87C3105F1AF
:10587000FF3998474D46BD4228D0226812F01002E9
:1058800013D12A70394663685046019EB047D8F854
:10589000003021681A1DC8F8002011F0200F1B6885
:1058A0000FD01860E3680133E3600020ED1BAB44C8
:1058B00025695D44256107B0BDE8F08F4FF0000B0E
:1058C000CAE7CA074CBF18801860EBE70120F2E76F
:1058D000A8650008115D0008155C0008A4650008B3
:1058E000838903F00903092B01D1FEF7BBBF002018
:1058F00070470000F8B50C46054618B183690BB92E
:10590000FFF71AF83C4B9C420AD16C680023636095
:10591000A389B4F90C209E060CD54FF0FF3067E048
:10592000364B9C4201D1AC68F0E7354B9C4208BF36
:10593000EC68EBE7580749D4D90605D409232B6056
:1059400042F04003A381E8E71A070BD52146284619
:10595000FEF74CFF0028E0D1A389A06023F00803E4
:10596000A381A061A38943F00403A38123691BB928
:1059700021462846FFF7C2F8A689B4F90C70B30790
:105980000FD00123A3811F4B1F49186806F0090699
:10599000FFF750F8092EA78103D121462846FEF7CC
:1059A0009FFE22692846666A6369216A2260B047C1
:1059B000002860601DDC18BF0022B4F90C3016BF4F
:1059C000626043F0200343F04003BBE7616B0029B2
:1059D000CCD004F14403994202D02846FFF7D6F810
:1059E0000020236C60636360002BBFD0E36B2360F7
:1059F000F8BD0020FCE700BF186500083865000806
:105A0000F8640008F4640008E158000870B50B78E9
:105A100004465E2B13BF002201224B78481C08BFAE
:105A2000881C04F1FF05611E01F8012FA942FBD17A
:105A30000BB9013870BD82F00101E154421C12F82B
:105A4000015C10462D2D02F1FF3606D05D2DF1D000
:105A50000DB93046EEE72B46EFE716785D2EFAD00B
:105A6000B342F8DC1846013086422154FBDCD843AF
:105A70003044B342A8BF00205D1C2B180232DEE781
:105A800010B50C46B1F90E10FAF770FB0028ABBF49
:105A9000636DA3891B1823F48053ACBF6365A38196
:105AA00010BD2DE9F0411F468B890546DB050C46EC
:105AB000164605D502230022B1F90E10FAF763FB52
:105AC000A389324623F48053A38128463B46B4F988
:105AD0000E10BDE8F041FAF74DBB10B50C46B1F918
